:020000040800F2
:1000000000500020B5140008891400088B14000863
:100010008D1400088F1400089114000800000000DF
:100020000000000000000000000000009314000821
:1000300095140008000000009714000899140008A7
:10004000FD140008FD140008FD140008FD1400084C
:10005000FD140008FD140008FD140008FD1400083C
:10006000FD140008FD140008FD140008FD1400082C
:10007000FD140008FD140008A5140008FD14000874
:10008000FD140008FD140008FD140008FD1400080C
:10009000FD140008FD140008FD140008FD140008FC
:1000A000FD140008FD140008FD140008FD140008EC
:1000B000FD140008FD140008FD140008FD140008DC
:1000C000FD140008FD140008FD140008FD140008CC
:1000D000FD140008FD140008FD140008FD140008BC
:1000E000FD140008FD140008FD14000800000000C5
:1000F0000000000000000000000000000000000000
:0C01000000000000000000005FF808F1A3
:10010C0010B5054C237833B9044B13B10448AFF345
:10011C0000800123237010BD0400002000000000AB
:10012C004815000808B5034B1BB103490348AFF34E
:10013C00008008BD000000000800002048150008E1
:10014C002DE9F84305460268136923F44053C1684E
:10015C000B431361836802691343426913430168BB
:10016C00CA6822F4B05222F00C021343CB6002682E
:10017C00536923F4407381690B4353610268594BF3
:10018C009A4257D000F08AFF00EB800000EB800011
:10019C006C68A400B0FBF4F4534FA7FB043464095F
:1001AC00260100F07BFF00EB800000EB80006C6808
:1001BC00A400B0FBF4F900F071FF00EB800000EB41
:1001CC0080006C68A400B0FBF4F4A7FB0434640951
:1001DC004FF0640808FB149424013234A7FB043458
:1001EC00640904F0F004344400F058FF00EB800084
:1001FC0000EB80006E68B600B0FBF6F600F04EFF28
:10020C0000EB800000EB80006B689B00B0FBF3F010
:10021C00A7FB0030400908FB10684FEA081808F1EA
:10022C003208A7FB0837C7F343172B6827449F6096
:10023C00BDE8F88300F042FF00EB800000EB80008B
:10024C006C68A400B0FBF4F4274FA7FB04346409DA
:10025C00260100F033FF00EB800000EB80006C689F
:10026C00A400B0FBF4F900F029FF00EB800000EBD8
:10027C0080006C68A400B0FBF4F4A7FB04346409A0
:10028C004FF0640808FB149424013234A7FB0434A7
:10029C00640904F0F004344400F010FF00EB80001B
:1002AC0000EB80006E68B600B0FBF6F600F006FFBF
:1002BC0000EB800000EB80006B689B00B0FBF3F060
:1002CC00A7FB0030400908FB10684FEA081808F13A
:1002DC003208A7FB0837C7F343172B6827449F60E6
:1002EC00A6E700BF003801401F85EB5158B310B58D
:1002FC00044690F839300BB3242384F83930226843
:10030C00D36823F40053D3602046FFF719FF22680B
:10031C00136923F4904313612268536923F02A0371
:10032C0053612268D36843F40053D3600020E06328
:10033C00202384F8393084F83A3010BD80F83830F6
:10034C0000F088FFD8E7012070470000074AD36807
:10035C0023F4E0631B041B0C000200F4E060184360
:10036C0040F0BF6040F40030D060704700ED00E01A
:10037C0030B4174BDB68C3F30223C3F10704042C1E
:10038C0028BF04241D1D062D18D9033B4FF0FF3543
:10039C0005FA04F421EA0401994005FA03F322EA70
:1003AC000303194300280BDB0901C9B200F16040BB
:1003BC0000F5614080F8001330BC70470023E5E77E
:1003CC0000F00F000901C9B2024B1954F4E700BF49
:1003DC0000ED00E014ED00E000F01F0240090123E5
:1003EC009340024A42F82030704700BF00E100E021
:1003FC000138B0F1807F0AD2064B5860064AF021D2
:10040C0082F823100020986007221A6070470120A0
:10041C00704700BF10E000E000ED00E0042805D0BC
:10042C00054A136823F0040313607047024A1368EB
:10043C0043F004031360704710E000E0704708B508
:10044C00FFF7FCFF08BD0000002830D010B40346B5
:10045C000168184A0A441848A0FB020212099200CB
:10046C001A64164ADA63022283F82120086820F401
:10047C007F5020F030005A689C682243DC6822438D
:10048C001C6922435C6922439C692243DC69224338
:10049C0002430A6000209862D8621863586398631C
:1004AC00012283F8212083F8200010BC7047012022
:1004BC00704700BFF8FFFDBFCDCCCCCC0000024094
:1004CC0038B5C36B1A6804682568016C04238B402B
:1004DC00134235D015F0040F32D0236813F0200FDF
:1004EC0003D1236823F0040323600368434A934237
:1004FC0014D01432934218D01432934217D01432C1
:10050C00934217D01432934217D01432934202D034
:10051C004FF0806203E04FF4800200E00422384B7D
:10052C005A60C36A03B1984738BD4022F7E74FF4CD
:10053C008062F4E74FF48042F1E74FF48022EEE75B
:10054C0002238B4013423CD015F0020F39D02368A4
:10055C0013F0200F06D1236823F00A032360012334
:10056C0080F821300368254A934214D01432934208
:10057C001CD0143293421BD0143293421BD0143231
:10058C0093421BD01432934202D04FF0007203E01E
:10059C004FF4001200E00222194B5A60002380F83D
:1005AC002030836A002BBFD09847BDE72022F3E7A9
:1005BC004FF40072F0E74FF40052EDE74FF40032C5
:1005CC00EAE7082303FA01F11142ADD015F0080F48
:1005DC00AAD0236823F00E032360026CC16B0123A5
:1005EC0003FA02F24A60836380F82130002380F81A
:1005FC002030036B002B97D0984795E708000240FA
:10060C0000000240F0B482B000263546A1E0002C78
:10061C0059D0012C00D1CE68FF2B68D88446FF2B13
:10062C0068D8AC00DCF800200F27A74022EA0702AC
:10063C0006FA04F42243CCF800204A6812F0805FDA
:10064C0000F086805E4A946944F0010494619269DA
:10065C0002F001020192019AAC08A71C594A52F807
:10066C00272005F00307BF004FF00F0C0CFA07FC16
:10067C0022EA0C0C544A904242D002F5806290421D
:10068C007FD002F5806290427DD002F5806290426C
:10069C0034D0042235E04D4FBC4214D00BD94C4F12
:1006AC00BC4210D007F58037BC420CD0A7F58017A0
:1006BC00BC42B1D107E0A7F58017BC4203D007F5C7
:1006CC008037BC42A8D18C687CB1012C08D0426127
:1006DC000826A1E7CE6808369EE7CE680C369BE765
:1006EC000261082698E7002696E7042694E700F1B5
:1006FC00040C94E7A5F10804A40093E7032200E09E
:10070C000022BA4042EA0C0202342E4F47F8242051
:10071C004A6812F4803F38D02E4C22681A4322606B
:10072C004A6812F4003F36D02A4C62681A43626061
:10073C004A6812F4801F34D0264CA2681A43A26077
:10074C004A6812F4001F32D0224CE2681343E36073
:10075C0001350F2D31D80122AA400B6813409A4263
:10076C00F6D14C68122CB8D095D8022CB2D07FF6AA
:10077C004EAF032CB7D0112C7FF44EAFCE6804369D
:10078C004AE70122BDE70222BBE7124C226822EAAB
:10079C0003022260C4E70F4C626822EA0302626023
:1007AC00C6E70C4CA26822EA0302A260C8E7094C17
:1007BC00E26822EA0303E360CAE702B0F0BC7047C8
:1007CC000010024000000140000801400000211010
:1007DC00000031100004014030B4046A24F010040D
:1007EC0004628469056A24F4407444EA022222F407
:1007FC0070421B039BB21A4325F0A005090101F0BE
:10080C00A00129438261016230BC704730B4046A94
:10081C0024F480740462C469056A24F0030422433E
:10082C0022F0F0021B01DBB21A4325F42065090209
:10083C0001F420612943C261016230BC704730B4BD
:10084C00046A24F480540462C469056A24F4407474
:10085C0044EA022222F470421B039BB21A4325F491
:10086C000055090301F400512943C261016230BCF7
:10087C007047000003681B4A90420AD0B0F1804FC9
:10088C0007D0A2F59432904203D002F580629042D8
:10089C0003D123F070034A681343124A90420AD0E2
:1008AC00B0F1804F07D0A2F59432904203D002F5FC
:1008BC008062904203D123F44073CA68134323F03F
:1008CC0080034A69134303608B68C3620B688362BD
:1008DC00044B984202D00123436170470B690363B8
:1008EC00F9E700BF002C0140A8B110B5044690F800
:1008FC003D305BB1022384F83D30211D2068FFF7A9
:10090C00B9FF012384F83D30002010BD80F83C3045
:10091C0000F07EFCEEE701207047000070B4046A22
:10092C0024F0010404628469056A114EB0420DD0B2
:10093C00B0F1804F0AD0A6F59436B04206D006F539
:10094C008066B04202D044F0010202E024F00304BD
:10095C00224322F0F0021B01DBB2134325F00A0202
:10096C0001F00A0111438361016270BC704700BF42
:10097C00002C014038B590F83C30012B58D00D4676
:10098C000446012380F83C30022380F83D30DAB174
:10099C00042A2AD0082A3AD0CB684A680968006829
:1009AC00FFF74DFF2268D36923F44063D3612268BB
:1009BC00D369A96843EA0123D361012384F83D304C
:1009CC00002084F83C0038BDCB684A680968006890
:1009DC00FFF7A4FF2268936923F00C03936122684C
:1009EC009369A9680B439361E7E7CB684A68096888
:1009FC000068FFF7F1FE2268936923F4406393616A
:100A0C0022689369A96843EA01239361D5E7CB680F
:100A1C004A6809680068FFF7F9FE2268D36923F079
:100A2C000C03D3612268D369A9680B43D361C4E773
:100A3C000220C8E710B50446074B1868074BA3FB08
:100A4C0000308009FFF7D4FC002221464FF0FF3024
:100A5C00FFF78EFC002010BD00000020D34D62106B
:100A6C0008B5074A136843F0100313600320FFF71F
:100A7C006DFC0020FFF7DEFF00F080FB002008BDBE
:100A8C0000200240024A136801331360704700BF14
:100A9C0020000020014B1868704700BF2000002088
:100AAC0082B0084B1B68084AA2FB03235B0A00FBBD
:100ABC0003F0019000BF019B5A1E0192002BF9D14B
:100ACC0002B0704700000020D34D621070B582B0A8
:100ADC000446036813F0010F2CD0AB4B5B6803F09A
:100AEC000C03042B1DD0A84B5B6803F00C03082BE4
:100AFC0012D06368B3F5803F41D0002B55D103F180
:100B0C00804303F504331A6822F480321A601A68A1
:100B1C0022F480221A6037E09B4B5B6813F4803F11
:100B2C00E7D0994B1B6813F4003F03D06368002B8C
:100B3C0000F0AE81236813F0020F76D0924B5B6805
:100B4C0013F00C0F5FD0904B5B6803F00C03082B79
:100B5C0054D02369002B00F08A808C4B01221A6040
:100B6C00FFF798FF0546884B1B6813F0020F75D1F1
:100B7C00FFF790FF401B0228F5D903208BE1824A36
:100B8C00136843F480331360636843B3FFF782FF49
:100B9C0005467D4B1B6813F4003FCBD1FFF77AFF62
:100BAC00401B6428F5D9032075E1B3F5A02F09D0BB
:100BBC00754B1A6822F480321A601A6822F480226B
:100BCC001A60E1E703F18043A3F53C331A6842F461
:100BDC0080221A601A6842F480321A60D4E7FFF758
:100BEC0059FF0546684B1B6813F4003FA2D0FFF772
:100BFC0051FF401B6428F5D903204CE1624B5B6824
:100C0C0013F4803FA5D1604B1B6813F0020F04D086
:100C1C002369012B01D001203DE15B4A136823F0CD
:100C2C00F803616943EAC1031360236813F0080FEA
:100C3C0032D0A369002B5BD0554B01221A60FFF711
:100C4C0029FF0546504B5B6A13F0020F21D1FFF7C9
:100C5C0021FF401B0228F5D903201CE14A4A1368E6
:100C6C0023F0F803616943EAC1031360DDE7474BE6
:100C7C0000221A60FFF70EFF0546434B1B6813F06A
:100C8C00020FD2D0FFF706FF401B0228F5D9032034
:100C9C0001E10120FFF704FF236813F0040F00F0BB
:100CAC009780394BDB6913F0805F33D1364BDA69AF
:100CBC0042F08052DA61DB6903F080530193019BAF
:100CCC000125344B1B6813F4807F25D0E368012B7E
:100CDC0036D0002B4CD103F1804303F504331A6A50
:100CEC0022F001021A621A6A22F004021A622CE043
:100CFC00274B00221A60FFF7CDFE0546224B5B6A9C
:100D0C0013F0020FC8D0FFF7C5FE401B0228F5D91F
:100D1C000320C0E00025D4E71E4A136843F4807317
:100D2C001360FFF7B7FE06461A4B1B6813F4807F5F
:100D3C00CCD1FFF7AFFE801B6428F5D90320AAE0C5
:100D4C00114A136A43F001031362E36873B3FFF7AC
:100D5C00A1FE06460C4B1B6A13F0020F37D1FFF7AE
:100D6C0099FE801B41F288339842F3D9032092E01C
:100D7C00052B11D0044B1A6A22F001021A621A6A6E
:100D8C0022F004021A62E0E7001002400000424226
:100D9C008004424200700040414B1A6A42F0040247
:100DAC001A621A6A42F001021A62CEE7FFF772FE6B
:100DBC0006463B4B1B6A13F0020F08D0FFF76AFE86
:100DCC00801B41F288339842F3D9032063E0E5B9E4
:100DDC00E369002B5ED0324A526802F00C02082AFA
:100DEC005BD0022B17D02F4B00221A60FFF752FE5C
:100DFC0004462B4B1B6813F0007F47D0FFF74AFECD
:100E0C00001B0228F5D9032045E0254AD36923F0BD
:100E1C008053D361DCE7234B00221A60FFF73AFEC4
:100E2C0005461F4B1B6813F0007F06D0FFF732FE00
:100E3C00401B0228F5D903202DE0236AB3F5803F2F
:100E4C001AD017494B6823F47413226A606A024360
:100E5C0013434B60134B01221A60FFF71BFE044631
:100E6C000F4B1B6813F0007F0ED1FFF713FE001B16
:100E7C000228F5D903200EE0094A536823F4003305
:100E8C00A1680B435360DCE7002004E0002002E083
:100E9C00012000E0002002B070BD0120FBE700BF84
:100EAC00001002406000424210B487B0164C94E827
:100EBC000F000DF1180C0CE90F00238AADF804306B
:100ECC00124B5B6803F00C02082A1AD1C3F383425D
:100EDC00624412F8100C13F4803F05D10C4B03FB49
:100EEC0000F007B010BC7047084B5B68C3F340437D
:100EFC00634413F8142C074BB3FBF2F300FB03F021
:100F0C00EFE70448EDE700BF601500080010024051
:100F1C0000093D0000127A00594B1B6803F00703CF
:100F2C008B420CD2564A136823F007030B43136011
:100F3C00136803F007038B4201D00120704770B592
:100F4C00036813F0020F06D04E4A536823F0F003E7
:100F5C008468234353600C460546036813F0010F65
:100F6C0052D04368012B23D0022B28D0454A12685B
:100F7C0012F0020F00F0828042494A6822F003020C
:100F8C0013434B60FFF786FD06466B68012B1DD0A3
:100F9C00022B2AD03B4B5B6813F00C0F34D0FFF7BD
:100FAC0079FD801B41F288339842F3D9032064E029
:100FBC00344A126812F4003FDED101205DE0314A60
:100FCC00126812F0007FD7D1012056E02D4B5B68E0
:100FDC0003F00C03042B17D0FFF75CFD801B41F2D0
:100FEC0088339842F2D9032047E0264B5B6803F024
:100FFC000C03082B08D0FFF74DFD801B41F2883302
:10100C009842F2D9032038E01D4B1B6803F007030C
:10101C00A3420CD91A4A136823F007032343136025
:10102C00136803F00703A34201D0012025E02B68CD
:10103C0013F0040F06D0134A536823F4E063E968F5
:10104C000B4353602B6813F0080F07D00D4A5368FD
:10105C0023F46053296943EAC1035360FFF724FF6B
:10106C00084B5B68C3F30313074AD35CD840074BA8
:10107C0018600020FFF7DEFC002070BD0120FCE7AB
:10108C0000200240001002407415000800000020EF
:10109C00014B1868704700BF0000002008B5FFF72F
:1010AC00F7FF044B5B68C3F30223034AD35CD840BD
:1010BC0008BD00BF001002408415000808B5FFF7FA
:1010CC00E7FF044B5B68C3F3C223034AD35CD840ED
:1010DC0008BD00BF001002408415000890F83C3099
:1010EC00012B22D030B4012280F83C20022380F85E
:1010FC003D300468636823F07003636004686368C0
:10110C000D682B4363600468A36823F08003A3601D
:10111C000468A36849680B43A36080F83D20002352
:10112C0080F83C30184630BC7047022070470000F5
:10113C000F4B1A6842F001021A6059680D4A0A40B6
:10114C005A601A6822F0847222F480321A601A688B
:10115C0022F480221A605A6822F4FE025A604FF47C
:10116C001F029A60044B4FF000629A60704700BFF8
:10117C00001002400000FFF800ED00E000B583B065
:10118C00214B9A6942F001029A619B6903F00103B9
:10119C000193019B0320FFF7D9F8002211466FF051
:1011AC000B00FFF7E5F8002211466FF00A00FFF77D
:1011BC00DFF8002211466FF00900FFF7D9F8002282
:1011CC0011466FF00400FFF7D3F8002211466FF0C0
:1011DC000300FFF7CDF8002211466FF00100FFF776
:1011EC00C7F8002211464FF0FF30FFF7C1F8074B4C
:1011FC005A6822F0E0625A605A6842F080625A6083
:10120C0003B05DF804FB00BF001002400000014079
:10121C0002680E4B9A4200D0704700B587B003F5B8
:10122C000333DA6942F00202DA61DB6903F002038C
:10123C000193019B4023029300230393049302A97F
:10124C000348FFF7DFF907B05DF804FB000400402A
:10125C00000801400268204B9A4200D0704770B5DC
:10126C0086B0044603F558439A6942F480429A6169
:10127C009B6903F480430193019B4FF40073029329
:10128C000223039303230593144E02A93046FFF760
:10129C00B9F94FF48063029300250395049502A9D4
:1012AC003046FFF7AFF90E480E4B03601023436036
:1012BC0085608023C360056145618561C561FFF769
:1012CC00C3F820B9064B23635C6206B070BDAE2137
:1012DC00054800F035F8F5E70038014000080140FA
:1012EC0064000020440002408C15000882B0064BBC
:1012FC009A6942F004029A619B6903F0040301931A
:10130C00019B02B0704700BF0010024000B583B0D3
:10131C000A4B5A6942F001025A615B6903F00103FE
:10132C000193019B002211460E20FFF721F80E209D
:10133C00FFF752F803B05DF804FB00BF0010024049
:10134C00FEE7000000B587B01648174B036000237A
:10135C0043608360C36003618361FFF7C5FAA8B97A
:10136C0000230493059304A90E48FFF7B7FE88B930
:10137C0000220092012301930292039269460948CC
:10138C00FFF7F8FA50B907B05DF804FBB421074831
:10139C00FFF7D6FFBB210548FFF7D2FFC421034856
:1013AC00FFF7CEFF2400002000040040A415000825
:1013BC0008B50B480B4B03604FF4E133436000233B
:1013CC008360C36003610C2242618361C361FEF7D9
:1013DC008DFF00B908BDD7210348FFF7B1FF00BF4F
:1013EC00A800002000380140A415000800B591B0F9
:1013FC000223069301230A9310230B9300230D93CE
:10140C0006A8FFF763FBF0B90F23019300210291AB
:10141C0003910491059101A8FFF77EFDB8B9FFF780
:10142C0037FE0D4BA3FB00308009FEF7E1FF0420D3
:10143C00FEF7F4FF002211464FF0FF30FEF798FF45
:10144C0011B05DF804FB88210448FFF779FF962161
:10145C000248FFF775FF00BFD34D6210A4150008BA
:10146C0008B5FFF7FDFAFFF7C1FFFFF73FFFFFF7E6
:10147C004DFFFFF767FFFFF79BFFFEE77047FEE7A7
:10148C00FEE7FEE7FEE770477047704708B5FFF7C9
:10149C00F9FAFEF7D4FF08BD08B50248FFF710F8BB
:1014AC0008BD00BF64000020002103E00B4B5B581B
:1014BC00435004310A480B4B42189A42F6D30A4A5D
:1014CC0002E0002342F8043B084B9A42F9D3FFF7A1
:1014DC002FFE00F00FF8FFF7C3FF7047B815000898
:1014EC00000000200400002004000020E800002080
:1014FC00FEE7000070B500250C4E0D4CA41BA4108B
:10150C00A54209D100F01AF800250A4E0A4CA41B7A
:10151C00A410A54205D170BD56F825309847013569
:10152C00EEE756F8253098470135F2E7B01500087C
:10153C00B0150008B0150008B4150008F8B500BFC8
:10154C00F8BC08BC9E467047F8B500BFF8BC08BC98
:04155C009E467047F0
:1015600002030405060708090A0B0C0D0E0F1010E4
:10157000010200000000000000000000010203045E
:101580000607080900000000010203045372632FDC
:1015900073746D3332663178785F68616C5F6D7338
:1015A000702E63005372632F6D61696E2E630000AD
:0415B00031010008FD
:0415B4000D0100081D
:0415B80000A24A043F
:04000005080014B526
:00000001FF
